:020000040800F2
:10000000C01D002079020008FD470008FF470008D6
:1000100003480008074800080B48000800000000DB
:100020000000000000000000000000000F48000871
:100030001148000800000000134800081548000897
:10004000930200089302000893020008930200083C
:10005000930200089302000893020008930200082C
:10006000930200089302000893020008930200081C
:10007000930200089302000893020008930200080C
:1000800093020008930200089302000893020008FC
:1000900093020008930200089302000893020008EC
:1000A00093020008930200089302000893020008DC
:1000B000930200083B4900089302000893020008DD
:1000C00093020008930200089302000893020008BC
:1000D0009302000893020008C1570008B7580008AF
:1000E000930200089302000893020008930200089C
:1000F000930200089302000893020008930200088C
:10010000930200089302000893020008930200087B
:10011000930200089302000893020008930200086B
:10012000930200089302000893020008930200085B
:1001300000F002F800F090F80AA090E8000C824469
:100140008344AAF10107DA4501D100F085F8AFF246
:10015000090EBAE80F0013F0010F18BFFB1A43F0A5
:10016000010318477CC900009CC90000103A24BF55
:1001700078C878C1FAD8520724BF30C830C144BF0C
:1001800004680C607047000000230024002500264E
:10019000103A28BF78C1FBD8520728BF30C148BFEA
:1001A0000B6070476E2906F0ED81702906F05585C9
:1001B000662909F0A887652909F0A587672909F04C
:1001C000A2876129AFF3008003681B0A28BF41F0B2
:1001D0008001692905F0E687642905F0E387752920
:1001E00005F0E0876F2906F0E284782906F0218582
:1001F000E92906F07D84E42906F07A84F52906F0E1
:100200007784EF2906F0DF84F82906F0208503685B
:10021000DB0928BF41F08001632906F0FE837329C2
:1002200006F00384E32906F0ED85F32906F0F28554
:10023000002070471FB506F04DFD0400002000218E
:1002400008F01CFE401C60600020002108F000FE49
:10025000E0601FBD10B510BD06F076FE1146FFF739
:10026000E9FF04F03CF906F09DFE03B4FFF7F2FF4E
:1002700003BC05F063F900000948804709480047BE
:10028000FEE7FEE7FEE7FEE7FEE7FEE7FEE7FEE746
:10029000FEE7FEE704480549054A064B70470000A3
:1002A0009703000831010008C0170020C01D00207E
:1002B000C0190020C01900200CB50020019000904A
:1002C0006C48006840F480306A49086000BF6948A3
:1002D000006800F4003000900198401C01900098E4
:1002E00018B90198B0F5A06FF1D16248006800F428
:1002F000003010B10120009001E000200090009833
:10030000012843D15C48006840F010005A49086059
:100310000846006820F0030008600846006840F0C6
:1003200002000860534840685249486008464068E7
:1003300048600846406840F480604860084640686D
:1003400020F47C1048600846406840F4E81048609B
:100350000846006840F08070086000BF45480068AB
:1003600000F000700028F9D04248406820F00300F7
:10037000404948600846406840F00200486000BFBD
:100380003C48406800F00C000828F9D10CBD10B5BD
:10039000FFF792FF10BD10B53648006840F001002D
:1003A000344908600846406834490840314948608B
:1003B00008460068324908402E490860084600682F
:1003C00020F4802008600846406820F4FE00486061
:1003D0004FF41F008860FFF7DAFF4FF000602949F3
:1003E000086010BD10B5002100200022214B5B6881
:1003F00003F00C0121B1042906D0082928D107E017
:10040000214B224C236027E01F4B204C236023E02C
:10041000184B5B6803F47010164B5B6803F4803272
:10042000022303EB904022B9194B4343174C23603E
:100430000DE0104B5B6803F4003323B1144B4343CE
:10044000124C236003E0104B4343104C236003E045
:100450000D4B0E4C236000BF00BF064B5B68C3F31F
:1004600003130C4CE15C094B1B68CB40074C236029
:1004700010BD000000100240002002400000FFF804
:10048000FFFFF6FE08ED00E000127A0000000020F9
:1004900000093D000400002031490143314A116048
:1004A000704770B5002100230F22C47804B32D4C8F
:1004B000246804F4E064C4F5E064210AC1F1040393
:1004C000CA40447804FA03F18478144021430901B6
:1004D000254C0678A155047804F01F050124AC4092
:1004E00005786D11AD0005F1E025C5F8004109E082
:1004F000047804F01F050124AC401C4D06787611E9
:1005000045F8264070BD1A4A0A400243154B1B1F8E
:100510001A60704739B1134A121D12680243114B19
:100520001B1D1A6006E00F4A121D126882430D4B14
:100530001B1D1A607047042808D14FF0E02109699B
:1005400041F004014FF0E022116107E04FF0E0219B
:10055000096921F004014FF0E022116170470000A9
:100560000000FA050CED00E000E400E080E100E0AE
:1005700080FFFF1F10B50446CC48844208D10121FA
:10058000042000F02DFB0021042000F029FB46E0B0
:10059000C748844208D10121082000F021FB002136
:1005A000082000F01DFB3AE0C248844208D1012136
:1005B000102000F015FB0021102000F011FB2EE0B0
:1005C000BD48844208D10121202000F009FB002110
:1005D000202000F005FB22E0B848844208D1012128
:1005E000402000F0FDFA0021402000F0F9FA16E06A
:1005F000B348844208D10121802000F0F1FA0021A3
:10060000802000F0EDFA0AE0AE48844207D10121D3
:10061000801500F0E5FA0021A01500F0E1FA10BD08
:1006200010B50121084600F0DBFA0021012000F09E
:10063000D7FA10BD2DE9F041024600250026002022
:1006400000230024002791F803C00CF00F0591F857
:1006500003C00CF0100CBCF1000F03D091F802C0E5
:100660004CEA050591F800C0BCF1000F31D01468C8
:1006700000202BE04FF0010C0CFA00F3B1F800C0A1
:100680000CEA03069E4220D183004FF00F0C0CFAB7
:1006900003F7BC4305FA03FC4CEA040491F803C0D9
:1006A000BCF1280F06D14FF0010C0CFA00FCC2F887
:1006B00014C00AE091F803C0BCF1480F05D14FF017
:1006C000010C0CFA00FCC2F810C0401C0828D1D361
:1006D0001460B1F800C0BCF1FF0F34DD5468002095
:1006E0002EE000F1080C4FF0010808FA0CF3B1F805
:1006F00000C00CEA03069E4221D183004FF00F0C8C
:100700000CFA03F7BC4305FA03FC4CEA040491F825
:1007100003C0BCF1280F05D100F1080C08FA0CF851
:10072000C2F8148091F803C0BCF1480F07D100F162
:10073000080C4FF0010808FA0CF8C2F81080401CB1
:100740000828CED35460BDE8F0814FF6FF710180D8
:10075000022181700421C170704702460020936815
:100760000B400BB1012000E0002070470146886873
:1007700080B2704702460020D3680B400BB10120C5
:1007800000E0002070470146C86880B270470161F0
:100790007047416170470AB1016100E041617047F3
:1007A000C16070474FF480320A4382618161826187
:1007B00082698269704702460020434B18684FF6F1
:1007C0008073184040EA021008433F4B186070479E
:1007D0003E49C8617047F0B50A4600230024002155
:1007E000002500F00046B6F1004F02D1364EF16907
:1007F00001E0354E7168C0F3034583B200F4401642
:10080000B6F5401F08D121F070612F4E766826F0B2
:1008100070662D4F7E6012E000F48016B6F5801FE2
:1008200006D1032606FA05F4A14341F0706106E003
:10083000460D360103FA06F6B14341F0706122B16C
:10084000460D360103FA06F6314300F00046B6F1D4
:10085000004F02D11C4EF16101E01B4E7160F0BDF2
:1008600030B500228B071C0F0F2303FA04F2164B3E
:1008700008338C1053F824309343134C08348D10F4
:1008800044F8253023468C1053F824308C07240F6D
:1008900000FA04F423430C4C08348D1044F825303E
:1008A00030BD0A49DC310860704700000008014093
:1008B000000C0140001001400014014000180140EC
:1008C000001C0140002001400000014000002042C7
:1008D000DF48006840F00100DD49086008464068D4
:1008E000DC490840DA49486008460068DA490840AF
:1008F000D74908600846006820F480200860084650
:10090000406820F4FE0048604FF41F008860704784
:10091000CF49096821F48031CD4A11601146096838
:1009200021F480211160B0F5803F03D0B0F5802F15
:100930000ED106E0C649096841F48031C44A11600D
:1009400007E0C349096841F4A021C14A116000E0F1
:1009500000BF00BF704710B50146002200230020F1
:100960004A11012A02D1BA4C236806E0022A02D1B8
:10097000B74C236A01E0B64C636A01F01F02012400
:1009800094401C400CB1012000E0002010BD38B59F
:10099000002000900024002500BF3120FFF7DBFF7E
:1009A00005460098401C00900098B0F5A06F01D05B
:1009B000002DF2D03120FFF7CEFF08B1012400E076
:1009C0000024204638BD01460020A14A106820F0CE
:1009D000F80040EAC10010607047A0490860704705
:1009E000024600209A4B586820F47C1042EA01032A
:1009F0001843974B586070479849086670470146FE
:100A00000020934A506820F003000843506070476C
:100A10008F48406800F00C007047014600208C4A67
:100A2000506820F0F00008435060704701460020F5
:100A3000874A506820F4E0600843506070470146E0
:100A40000020834A506820F4605040EAC1005060A2
:100A5000704729B17E4A527A02437D4B5A7204E0B4
:100A60007B4A527A82437A4B5A7270477B49D8311B
:100A70000860704701460020754A506820F44040E5
:100A80000843506070470021714A20321170704A4B
:100A900082F82010012802D004280AD104E00121A4
:100AA0006B4A2032117005E00521694A203211702D
:100AB00000E000BF00BF70476949086070476449A3
:100AC000096A0143624A1162704765494439086006
:100AD000704730B500210022002400235C4D6D6872
:100AE00005F00C0121B1042905D0082923D105E026
:100AF0005C4D056022E05B4D05601FE0544D6D6864
:100B000005F47012524D6D6805F48034022505EB32
:100B100092421CB9544D554305600BE04C4D6D6835
:100B200005F400351DB1504D5543056002E04D4DB3
:100B30005543056002E04B4D056000BF00BF444DCA
:100B40006D6805F0F0010909484D6B5C0568DD40F2
:100B500045603F4D6D6805F4E061090A434D6B5CEB
:100B60004568DD4085603A4D6D6805F46051C90AFD
:100B70003E4D6B5C4568DD40C560354D6D6805F4E4
:100B80004041890B3A4D6B5CC568B5FBF3F50561D7
:100B900030BD29B12E4A526902432D4B5A6104E0FF
:100BA0002B4A526982432A4B5A61704729B1284A1D
:100BB00092690243264B9A6104E0254A9269824376
:100BC000234B9A61704729B1214AD2690243204BD5
:100BD000DA6104E01E4AD26982431D4BDA61704734
:100BE00029B11B4AD2680243194BDA6004E0184A63
:100BF000D2688243164BDA60704729B1144A1269F1
:100C00000243134B1A6104E0114A12698243104BEC
:100C10001A61704712494039086070470F49C8642B
:100C200070470B49C87170470948406A40F08070AE
:100C300007494862704701460020054A92680A4009
:100C40000AB1012000E00020704701498872704716
:100C5000001002400000FFF8FFFFF6FE00004242D5
:100C60008004424200127A0000093D001400002076
:100C70002400002010B50446BE48844208D101215A
:100C80008014FFF7ADFF0021A014FFF7A9FF16E0C5
:100C9000B948844208D101210014FFF7AEFF0021BA
:100CA0002014FFF7AAFF0AE0B448844207D10121CB
:100CB000C013FFF7A2FF0021E013FFF79EFF10BD56
:100CC00010B50022028802F441520B884C8823435D
:100CD0008C882343CC8823430C8923434C892343AA
:100CE0008C892343CC8923431A430280838B4FF2A0
:100CF000FF74234083830B8A038210BD2DE9F04FDC
:100D000085B005460C464FF0000902274FF0000859
:100D10004FF0010B0026B246A88B4FF2400108406D
:100D2000A88302202884B5F81C90A068022801D16D
:100D300000BF38E0A08810B94FF0010B01E04FF080
:100D4000020B8D48854200D100E000BF6846FFF7E6
:100D5000C0FEDDF800A0E088B0F5007F0AD14FEAC0
:100D60001A2000EB80004000A168B0FBF1F0401DAC
:100D700086B20BE04FEA4B10BAFBF0F000EB8000BC
:100D80004000A168B0FBF1F0401D86B20A20B6FB1E
:100D9000F0F606F00108A6EB0800C0F34F074FF687
:100DA000FF7000EA0828022F01DBFF2F02DD022777
:100DB0004FF00008E08840EA080038432884A08803
:100DC000A1890843618808432188084340F40060F2
:100DD00040EA0909A5F81C9005B0BDE8F08F002194
:100DE000018041808180C180018141818181C181F7
:100DF0000721018270470021018041808180C180EC
:100E00000221816000218181704721B1028842F076
:100E10004002028004E002884FF6BF731A4002804D
:100E2000704721B1828B42F48062828304E0828B1E
:100E30004FF6FF331A408283704730B500240023F9
:100E40000C110125A540ABB21AB185881D438580E0
:100E500002E085889D43858030BD1AB183880B43AD
:100E6000838002E083888B43838070478181704751
:100E70000146888970474FF6FF62914204D002888C
:100E800042F48072028004E002884FF6FF631A4049
:100E90000280704721B1828842F00402828004E01F
:100EA00082884FF6FB731A408280704702884FF2A7
:100EB000FF731A40028002880A430280704701884B
:100EC00041F480510180704721B1028842F4005200
:100ED000028004E002884DF6FF731A4002807047DA
:100EE00002460020012901D0108B00E0908A704753
:100EF0000146088A7047B1F5804F04D1028842F458
:100F00008042028004E002884BF6FF731A400280A0
:100F100070470246002013890B400BB1012000E00E
:100F200000207047CA4302817047F0B50246002096
:100F300000240023002501F00F070126BE40B4B2B3
:100F40000B1101269E40B3B2968806EA0305168966
:100F5000264016B10DB1012000E00020F0BD10B513
:100F6000002201F00F040123A3409AB2D34303816E
:100F700010BD00000030014000380040003C00403F
:100F800010B50446FE48844208D10121C014FFF781
:100F900027FE0021E014FFF723FEC4E0B4F1804FE8
:100FA00008D101210846FFF728FE00210120FFF7A4
:100FB00024FEB8E0F348844208D101210220FFF763
:100FC0001CFE00210220FFF718FEACE0EE48844230
:100FD00008D101210420FFF710FE00210420FFF7B3
:100FE0000CFEA0E0E948844208D101210820FFF767
:100FF00004FE00210820FFF700FE94E0E44884424C
:1010000008D101211020FFF7F8FD00211020FFF783
:10101000F4FD88E0DF48844208D101212020FFF759
:10102000ECFD00212020FFF7E8FD7CE0DA48844257
:1010300008D101214014FFF7D3FD00216014FFF710
:10104000CFFD70E0D548844209D10121C804FFF7E3
:10105000C7FD00214FF40020FFF7C2FD63E0D04838
:10106000844209D101210805FFF7BAFD00214FF4A0
:101070008010FFF7B5FD56E0CA48844209D101212E
:101080004805FFF7ADFD00214FF40010FFF7A8FD64
:1010900049E0C548844208D101214020FFF7ADFD59
:1010A00000214020FFF7A9FD3DE0C048844208D15F
:1010B00001218020FFF7A1FD00218020FFF79DFD89
:1010C00031E0BB48844208D101218015FFF795FD2E
:1010D0000021A015FFF791FD25E0B648844209D113
:1010E00001210804FFF77CFD00214FF48030FFF759
:1010F00077FD18E0B048844209D101214804FFF788
:101100006FFD00214FF40030FFF76AFD0BE0AB48A4
:10111000844208D101218804FFF762FD00214FF4C9
:101120008020FFF75DFD10BD00220288944B98429D
:101130000ED0994B98420BD0B0F1804F08D0914B14
:10114000984205D0904B984202D0904B984204D1DF
:101150004FF68F731A404B881A438D4B984207D035
:101160008C4B984204D04FF6FF431A40CB881A4369
:1011700002808B8883850B880385814B98420BD036
:10118000854B984208D08B4B984205D08A4B9842A9
:1011900002D08A4B984201D10B7A038601238382C5
:1011A000704770B5002400220023058C4FF6FE76B0
:1011B00035400584028C8388048B4FF68F752C4054
:1011C000B51E2C400D882C43751E2A400D892A43DC
:1011D0004D882A436A4DA8420BD06F4DA84208D0D3
:1011E000744DA84205D0744DA84202D0734DA84258
:1011F00013D14FF6F7752A404D892A434FF6FB75F8
:101200002A408D882A434FF6FF652B404FF6FF5545
:101210002B408D892B43CD892B4383800483CD883C
:101220008586028470BD70B5002400220023058CE1
:101230004FF6EF7635400584028C8388048B48F6A0
:10124000FF752C404FF6FF452C400D884FF6FF767A
:1012500006EA05252C434FF6DF752A400D8906EA7C
:1012600005152A434D8806EA05152A43444DA84230
:1012700002D0494DA8421DD14FF67F752A404D89B5
:101280004FF6FF7606EA05152A434FF6BF752A404A
:101290008D8806EA05152A434FF6FF352B404FF29D
:1012A000FF752B408D8906EA85052B43CD8906EA1B
:1012B00085052B4383800483CD880587028470BD18
:1012C00070B5002400220023058C4FF6FF663540E0
:1012D0000584028C8388848B4FF68F752C404FF6E3
:1012E000FC752C400D882C434FF6FF552A400D8984
:1012F0004FF6FF7606EA05252A434D8806EA0525BE
:101300002A431F4DA84202D0234DA8421DD14FF2BF
:10131000FF752A404D894FF6FF7606EA05252A43D8
:101320004FF6FF352A408D8806EA05252A434EF6FA
:10133000FF752B404DF6FF752B408D8906EA05158C
:101340002B43CD8906EA05152B4383808483CD8802
:101350008587028470BD70B5002200230024058CAF
:101360004EF6FF7635400584038C8488828B48F6E0
:10137000FF752A404FF6FF452A400D8820E0000007
:10138000002C01400004004000080040000C004018
:10139000001000400014004000340140004C0140A7
:1013A000005001400054014000180040001C004063
:1013B000002000400040014000440140004801403E
:1013C0004FF6FF7606EA05252A434DF6FF752B40BA
:1013D0000D8906EA05352B434D8806EA05352B4372
:1013E000FA4DA84202D0FA4DA84208D14BF6FF753B
:1013F0002C408D894FF6FF7606EA85152C438480B4
:101400008283CD88A0F84050038470BD828B4FF258
:10141000FF331A408283828B4FF6FF7303EA012366
:101420001A4382837047F0B50C461546002200210E
:101430000026078C4EF6FF7C07EA0C070784828B98
:10144000018C4FF6FF7707EA043640F6FF473A4033
:101450004FF6FF7707EA05273A434FF6FF7707EA8B
:1014600003373A43D94FB8420ED0D94FB8420BD0C8
:10147000B0F1804F08D0D74FB84205D0D64FB84210
:1014800002D0D64FB84206D14DF6FF77394046F428
:101490008057394305E047F6FF57394044F48057F9
:1014A000394382830184F0BD828B4FF6F3731A4077
:1014B0008283828B0A4382837047F0B50C461546BF
:1014C000002200210026078C4FF6FF6C07EA0C076C
:1014D0000784828B018C4FF6FF7707EA04264FF6CC
:1014E0000C773A404FF6FF7707EA03172F433A434A
:1014F000B64FB8420ED0B64FB8420BD0B0F1804FC5
:1015000008D0B44FB84205D0B34FB84202D0B34F61
:10151000B84206D14FF6FF57394046F48077394339
:1015200005E04FF2FF57394044F480773943828316
:101530000184F0BD028B4FF2FF331A400283028B0D
:101540004FF6FF7303EA01231A4302837047F0B595
:101550000C461546002200210026078C4FF6EF7C32
:1015600007EA0C070784028B018C4FF6FF7707EA26
:10157000041640F6FF473A404FF6FF7707EA033775
:101580003A434FF6FF7707EA05273A438F4FB842B1
:101590000ED08F4FB8420BD0B0F1804F08D08D4F96
:1015A000B84205D08C4FB84202D08C4FB84206D119
:1015B0004FF6DF77394046F01007394305E04FF624
:1015C0005F77394044F01007394302830184F0BD4E
:1015D000028B4FF6F3731A400283028B0A43028395
:1015E0007047F0B50C46154600220021068C4FF6D8
:1015F000FE773E400684028B018C4FF60C7632401B
:101600007E1C06EA03162E433243704EB0420ED0C3
:101610006F4EB0420BD0B0F1804F08D06D4EB0424B
:1016200005D06D4EB04202D06C4EB04206D14FF69E
:10163000FD76314044F00106314305E04FF6F57682
:10164000314044F00106314302830184F0BD70B59E
:1016500005460C465D4885420ED05D4885420BD05C
:10166000B5F1804F08D05B48854205D05A48854285
:1016700002D05A48854200D100E000BF208850B90E
:101680002389A28861882846FFF7ABFFE1882846B6
:10169000FFF79EFF25E0208804280AD12389A2882D
:1016A00061882846FFF753FFE1882846FFF742FF8D
:1016B00017E0208808280AD12389A2886188284653
:1016C000FFF7FBFEE1882846FFF7EEFE09E02389DD
:1016D000A28861882846FFF7A6FEE1882846FFF722
:1016E00095FE70BD2DE9F04105460C460026012708
:1016F000608808B9022600E00026A088012801D1F0
:10170000022700E001272088A0B92389A2886188E8
:101710002846FFF766FFE1882846FFF759FF23892F
:101720003A4631462846FFF712FFE1882846FFF780
:1017300001FF13E02389A28861882846FFF707FF8D
:10174000E1882846FFF7F6FE23893A4631462846C7
:10175000FFF747FFE1882846FFF73AFFBDE8F08131
:101760000A884B881A438B881A43CB881A430B8903
:101770001A434B891A438B891A43A0F844207047B7
:101780004FF6FF71818000210180C180418001728C
:1017900070470021018041808180C18001814181A9
:1017A0008181C181704700210180418001218180B8
:1017B0000021C1800181704700210180418081802A
:1017C000C18001814181818170470000002C01406E
:1017D000003401400004004000080040000C0040BC
:1017E00021B1028842F00102028004E002884FF633
:1017F000FE731A400280704731B1B0F8442042F4C1
:101800000042A0F8442005E0B0F84420C2F30E02E4
:10181000A0F8442070471AB183890B43838102E00A
:1018200083898B43838170478182704741EA020339
:10183000A0F8483070471AB183890B43838102E0D6
:1018400083898B438381704701894FF6F872114079
:10185000018170470A46002101894FF68F731940B4
:1018600011430181704730B504460D462946204694
:10187000FFF7F0FF208940F00700208130BD2DE9FF
:10188000F04104460D4616461F46602D06D13B46E4
:10189000012231462046FFF75AFE05E03B46012271
:1018A00031462046FFF79DFE29462046FFF7D2FF2E
:1018B000208940F007002081BDE8F08130B50C465A
:1018C00000210189C9B24FF6FF7505EA03251543CA
:1018D00025432943018130BD2DE9F04105460E46DF
:1018E00017469846002443463A4631462846FFF7B5
:1018F000E5FF2C894FF6F870044044F007044FF6DA
:101900008F70044044F070042C81BDE8F081F0B584
:1019100004460D4616461F463B463246294620469B
:10192000FFF7CCFF208940F480402081F0BD018585
:10193000828270470A46002101884FF68F73194052
:10194000114301807047F0B50C4615461E46002134
:10195000002200230189028B038C4FF6F87739406F
:1019600021434FF6FC473A4040F201173A434FF605
:10197000DD773B404FF6FF7707EA06172F433B43DF
:10198000018102830384F0BD0A460021018B4FF6DA
:101990008F7319401143018370470A460021018B60
:1019A00048F6FF7319404FF6FF7303EA0223194309
:1019B000018370470A460021818B4FF68F731940CF
:1019C0001143818370470A460021818B48F6FF73DB
:1019D00019404FF6FF7303EA0223194381837047CE
:1019E00021B1028842F08002028004E002884FF6B2
:1019F0007F731A400280704721B1828842F004024E
:101A0000828004E082884FF6FB731A408280704720
:101A100021B1828842F00802828004E082884FF679
:101A2000F7731A408280704721B1828842F0010228
:101A3000828004E082884FF6FE731A4082807047ED
:101A40000A460021018B4FF6F773194011430183B9
:101A500070470A460021018B4FF2FF7319404FF681
:101A6000FF7303EA02231943018370470A460021EA
:101A7000818B4FF6F77319401143818370470A46F3
:101A80000021818B4FF2FF7319404FF6FF7303EA79
:101A900002231943818370470A460021018B4FF6C8
:101AA000FB7319401143018370470A460021018BE3
:101AB0004FF6FF3319404FF6FF7303EA0223194331
:101AC000018370470A460021818B4FF6FB73194052
:101AD0001143818370470A460021818B4FF6FF3303
:101AE00019404FF6FF7303EA0223194381837047BD
:101AF0000A460021018B4FF67F7319401143018381
:101B000070470A460021018BC1F30E014FF6FF73A7
:101B100003EA02231943018370470A460021818B9F
:101B20004FF67F7319401143818370470A460021A5
:101B3000818BC1F30E014FF6FF7303EA02231943B1
:101B4000818370470A460021018C4FF6FD731940CE
:101B50001143018470470A460021018C4FF6F77348
:101B600019401143018470470A460021018C4FF649
:101B7000DF7319404FF6FF7303EA02131943018420
:101B800070470A460021018C4FF67F7319404FF6CB
:101B9000FF7303EA02131943018470470A460021C8
:101BA000018C4FF6FF5319404FF6FF7303EA0223EF
:101BB0001943018470470A460021018C4FF2FF73DC
:101BC00019404FF6FF7303EA02231943018470475B
:101BD0000A460021018C4DF6FF7319404FF6FF7342
:101BE00003EA023319430184704730B5002301240E
:101BF0008C40A3B2048C9C430484048C02FA01F54B
:101C0000ADB22C43048430BD30B5002304248C4095
:101C1000A3B2048C9C430484048C02FA01F5ADB297
:101C20002C43048430BD70B50346002000241846C0
:101C3000183001258D40ACB21D8CA5431D8409B11F
:101C4000082909D100EB6100056825F070050560E1
:101C50000568154305600EE00D1FC5F34E052844C9
:101C6000056825F4E045056005684FF6FF7606EA4D
:101C700002263543056070BD21B1028842F00202A0
:101C8000028004E002884FF6FD731A40028070471C
:101C900021B1028842F00402028004E002884FF67B
:101CA000FB731A400280704721B1828842F08002A3
:101CB000828004E082884FF67F731A4082807047EA
:101CC00002884FF6F7731A40028002880A430280A6
:101CD000704782884FF68F731A40828082880A4349
:101CE0008280704702894FF6F8731A400281028998
:101CF0000A430281704702894FF67F731A400281BE
:101D000002890A4302817047818470478185704748
:101D1000818670470187704781877047A0F840101F
:101D2000704702884FF6FF431A40028002880A4338
:101D3000028070470146888E70470146088F7047C1
:101D40000146888F70470146B1F840007047014650
:101D5000888C70470146088D704702460020138A20
:101D60000B400BB1012000E000207047CA43028203
:101D7000704730B50246002000230024158A05EA8A
:101D80000103958905EA010413B10CB1012000E0BB
:101D9000002030BDCA4302827047000010B50446DF
:101DA000FB48844209D101218803FEF719FF002175
:101DB0004FF48040FEF714FF32E0F648844209D128
:101DC00001214804FEF719FF00214FF40030FEF70F
:101DD00014FF25E0F048844209D101218804FEF770
:101DE0000CFF00214FF48020FEF707FF18E0EB48BE
:101DF000844209D10121C804FEF7FFFE00214FF4FF
:101E00000020FEF7FAFE0BE0E548844208D10121EC
:101E10000805FEF7F2FE00214FF48010FEF7EDFEFC
:101E200010BD2DE9F04786B005460E460024A246B7
:101E300000BFA1460027B08900B100BF2F462C8A01
:101E40004CF6FF700440F08804432C82AC894EF6B7
:101E5000F3100440B0883189084371890843044372
:101E6000AC81AC8A4FF6FF400440B0890443AC8299
:101E700001A8FEF72EFEC648874202D1DDF810A069
:101E800001E0DDF80CA0A88900F4004040B10AEBA5
:101E9000CA0000EB0A1031684900B0FBF1F807E016
:101EA0000AEBCA0000EB0A1031688900B0FBF1F8B8
:101EB0006420B8FBF0F004012009642101FB1089C3
:101EC000A88900F4004040B1322000EBC900B0FB0B
:101ED000F1F000F00700044308E0322000EB0910A5
:101EE0006421B0FBF1F000F00F0004432C8106B038
:101EF000BDE8F0874FF41651016000218180C18058
:101F000001810C21418100218181704710B5024679
:101F10000020108A4FF2FF0318400B884C8823439F
:101F20008C882343CC8823431843108210BD0021A2
:101F3000018041808180C180704721B1828942F453
:101F40000052828104E082894DF6FF731A4082813B
:101F50007047F0B50346002400260025002040F617
:101F60006A17B94200D100BF1846C1F3421401F00C
:101F70001F06012707FA06F5012C01D10C3004E0F9
:101F8000022C01D1103000E014301AB107682F4341
:101F9000076002E00768AF430760F0BD1AB1838AAB
:101FA0000B43838202E0838A8B4383827047028AD9
:101FB0004FF6F0731A400282028A0A430282704787
:101FC00082894FF2FF731A40828182890A4382819B
:101FD000704721B1828942F00202828104E0828945
:101FE0004FF6FD731A4082817047028A4FF6DF7305
:101FF0001A400282028A0A430282704721B1028A91
:1020000042F48042028204E0028A4BF6FF731A40D7
:1020100002827047C1F308028280704701468888B7
:10202000C0F308007047818941F001018181704748
:10203000028BD2B20283028B42EA012202837047F2
:10204000028B02F47F420283028B0A4302837047B1
:1020500021B1828A42F02002828204E0828A4FF615
:10206000DF731A408282704721B1828A42F01002E7
:10207000828204E0828A4FF6EF731A4082827047B0
:1020800021B1828A42F00802828204E0828A4FF6FD
:10209000F7731A408282704721B1828942F400426C
:1020A000828103E08289C2F30E028281704721B1EE
:1020B000828A42F40062828204E0828A4FF2FF73D5
:1020C0001A4082827047828A4FF6FB731A408282DE
:1020D000828A0A438282704721B1828A42F00202D8
:1020E000828204E0828A4FF6FD731A408282704732
:1020F00002460020B1F5007F00D100BF13880B40DD
:102100000BB1012000E00020704701F40072B2F52D
:10211000007F00D100BFCA430280704770B50246FD
:10212000002400230025002040F66A16B14200D1A9
:1021300000BFC1F3421501F01F03012606FA03F3A5
:10214000012D02D19689334006E0022D02D1168A74
:10215000334001E0968A33400C12012606FA04F45B
:102160001688344013B10CB1012000E0002070BD8E
:1021700010B50022002340F66A14A14200D100BF2E
:102180000A1201249440A3B2DC43048010BD000075
:10219000003801400044004000480040004C00402E
:1021A0000050004010B56FF00400FEF7C4F9344849
:1021B00000683449B0FBF1F03349087008460078F4
:1021C00000EB4001C1EBC0104FF6FF7101EAC00007
:1021D0002E49088010BD01462B4A12784A434FF021
:1021E000E0235A6100229A611A46126942F0010204
:1021F0001A6100BF4FF0E022106900F001021AB12D
:1022000000F48032002AF5D04FF0E022126922F06B
:1022100001024FF0E0231A6100229A6170470146E3
:102220001A4A12884A434FF0E0235A6100229A6109
:102230001A46126942F001021A6100BF4FF0E02213
:10224000106900F001021AB100F48032002AF5D0C2
:102250004FF0E022126922F001024FF0E0231A61F0
:1022600000229A61704730B50446002505E04FF41E
:102270007A70FFF7D4FF681CC5B2A542F7D330BD12
:102280000000002000127A00280000202A00002010
:102290000246134610E010782A2805D0107820282E
:1022A00002DB10787A2801DDFF20704710782C2897
:1022B00001D1481EC1B2521C0029ECD1D01AC0B2C3
:1022C000F3E710B50246012000E050430B1EA1F1D8
:1022D0000104E1B2F9D110BD2DE9F34F81B00746F9
:1022E0003C4600200090834681460026804628E038
:1022F00020782D2802D148F00208641C20782C2870
:1023000002D020782A2800D11CE020782E2803D182
:1023100048F00108641C09E02078392802DC2078A4
:10232000302803DA4FF0000900260BE008F0010026
:1023300010B1701CC6B203E009F1010000F0FF0902
:10234000641CD5E700BF08F0020000B17F1C002527
:102350000EE0A9F10100401BC1B20A20FFF7B1FF56
:10236000795D3039009A00FB01200090681CC5B2ED
:102370004D45EEDB072E00DD07260298067000258E
:102380000EE0701E401BC1B20A20FFF79AFF09F150
:1023900001012944795C303900FB01BB681CC5B2DE
:1023A000B542EEDB31460A20FFF78BFF009901FBB7
:1023B00000BA08F0020008B1CAF1000A5046BDE8B0
:1023C000FE8FF8B504462746DFA1384603F0EAFF42
:1023D000054603212846FFF75BFF0646FF2E05D082
:1023E000A8196946FFF778FFD9490870F8BDF8B514
:1023F0000646D8A1304603F0D5FF054606212846FB
:10240000FFF746FF0446FF2C05D028196946FFF761
:1024100063FFD249087007212846FFF739FF0446B9
:10242000FF2C05D028196946FFF756FFCC490870E4
:1024300009212846FFF72CFF0446FF2C05D0281958
:102440006946FFF749FFC7490860F8BDF8B5064679
:10245000C5A1304603F0A6FF054602212846FFF736
:1024600017FF0446FF2C05D028196946FFF734FFF3
:10247000BF4908700F212846FFF70AFF0446FF2CCA
:1024800005D028196946FFF727FFBA4908801021AF
:102490002846FFF7FDFE0446FF2C05D028196946A3
:1024A000FFF71AFFB449088011212846FFF7F0FE14
:1024B0000446FF2C05D028196946FFF70DFFAF49E8
:1024C0000880F8BD2DE9F14F84B0ADA1049803F068
:1024D00069FF064601213046FFF7DAFE0446FF2C6D
:1024E00022D0301903A9FFF7F7FE80469DF80C10A3
:1024F0000A20FFF7E6FEB8FBF0F542F21070B5FBDC
:10250000F0F0A14908706420B5FBF0F06421B0FB45
:10251000F1F201FB12009D4908706420B5FBF0F157
:1025200000FB11509A49087003213046FFF7B0FEB6
:102530000446FF2C46D0301903A9FFF7CDFE05460F
:102540009DF80C00801CC1B20A20FFF7BAFEB5FB53
:10255000F0F0904908609DF80C00801CC1B20A2080
:10256000FFF7AFFEB5FBF0F100FB1158404607F056
:102570000FFC07469DF80C00C0F10500C1B20A200F
:10258000FFF79FFE019007F003FC8346394607F0F2
:1025900047FC8246804907F019FB804605210A2046
:1025A000FFF78FFE7B49096800FB01FA504607F0F0
:1025B000EFFB8146414607F09BFA029007F0C8FB0B
:1025C0007449086004213046FFF762FE0446FF2C80
:1025D00002D0305D7149087005213046FFF758FE82
:1025E0000446FF2C46D0301903A9FFF775FE0546B7
:1025F0009DF80C00801CC1B20A20FFF762FEB5FBFB
:10260000F0F0674908609DF80C00801CC1B20A20F8
:10261000FFF757FEB5FBF0F100FB1158404607F0FD
:10262000B7FB07469DF80C00C0F10500C1B20A20B7
:10263000FFF747FE019007F0ABFB8346394607F0F2
:10264000EFFB8246544907F0C1FA814605210A2072
:10265000FFF737FE5249096800FB01FA504607F0C0
:1026600097FB4946029007F043FA804607F070FB5B
:102670004B49086006213046FFF70AFE0446FF2C4E
:1026800002D0305D4749087009213046FFF700FE4F
:102690000446FF2C1DD0301903A9FFF71DFE054687
:1026A00042F21070B5FBF0F03F4908706420B5FBB2
:1026B000F0F06421B0FBF1F201FB12003B4908701D
:1026C0006420B5FBF0F100FB115000F5FA603849C9
:1026D000086005B0BDE8F08FF8B5064635A1304674
:1026E00003F060FE044607212046FFF7D1FD0546B2
:1026F000FF2D16D060196946FFF7EEFD2F490860DF
:102700009DF8000003280CDA9DF80000C0F10300DA
:10271000C1B20A20FFF7D5FD284909684843274977
:102720000860F8BD10B504462046FFF74AFE204673
:10273000FFF75DFE2046FFF789FE2046FFF7C2FE49
:102740002046FFF7C9FF10BD2447504753560000ED
:102750003400002024475047474100003700002044
:10276000380000204000002024475047534100001B
:10277000390000203A0000203C0000203E000020EC
:102780004750524D430000004E0000204F000020F3
:10279000500000202C000020000070423500002076
:1027A00030000020360000204D0000204C000020AA
:1027B00048000020244750565447000044000020A1
:1027C00000B587B001210C20FEF7F0F901210803C4
:1027D000FEF7ECF9E020ADF8180018208DF81B008A
:1027E00003208DF81A0006A9FE48FDF723FFE0211B
:1027F000FC48FDF7CCFF0020ADF804004FF48270D8
:10280000ADF806000020ADF80800ADF80A00ADF8FC
:102810000C004FF40070ADF80E000020ADF8100071
:10282000ADF812000720ADF8140001A9EE48FEF73C
:1028300047FA0121EC48FEF7E8FA0220ADF818004B
:1028400003208DF81A0010208DF81B0006A9E5481A
:10285000FDF7F0FE0220E349103108600120ADF8D9
:10286000180010208DF81B0006A9DE48FDF7E2FED7
:102870000120ADF8180010208DF81B0006A9DB48D8
:10288000FDF7D8FE07B000BD2DE9F04105460E4624
:10289000002726B10120D3491031086003E0012050
:1028A000D049143108600220CE491431086000215B
:1028B000CD48FEF7FBFA002406E0601CC4B2C82C29
:1028C00002DD0020BDE8F0810221C748FEF721FBB0
:1028D0000028F2D02946C448FEF7C8FA002405E0D3
:1028E000601CC4B2C82C01DD0020EBE70121BE480A
:1028F000FEF70FFB0028F3D0BB48FEF7B9FAC7B2CA
:102900000220B84910310860012008603846D9E734
:1029100070B5054600260120B2491031086002203A
:10292000091D08608102B048FEF7C0FA002405E0E6
:10293000601C84B2C82C01DD002070BD0221AA48B1
:10294000FEF7E7FA0028F3D02946A748FEF78EFAEB
:10295000002405E0601C84B2C82C01DD0020ECE7F7
:102960000121A148FEF7D5FA0028F3D09E48FEF7D2
:102970007FFA064602209B4910310860012008605A
:102980003046DAE710B5FFF71BFF022095491431F6
:10299000086001209549143108601E20FFF73FFCB4
:1029A00001209249103108601E20FFF738FC0021F9
:1029B000CB20FFF769FF01213920FFF765FF0121D7
:1029C0002C20FFF761FF01210020FFF75DFF0121AF
:1029D0003420FFF759FF01210220FFF755FF0021A6
:1029E000CF20FFF751FF01210020FFF74DFF01210C
:1029F000D920FFF749FF01213020FFF745FF0021D3
:102A0000E820FFF741FF01218520FFF73DFF01216D
:102A10001020FFF739FF01217820FFF735FF002153
:102A2000EA20FFF731FF01210020FFF72DFF0121F0
:102A30000020FFF729FF0021ED20FFF725FF0121EE
:102A40006420FFF721FF01210320FFF71DFF012173
:102A50001220FFF719FF01218120FFF715FF002148
:102A6000F720FFF711FF01212020FFF70DFF0021C4
:102A7000C020FFF709FF01212120FFF705FF0021FA
:102A8000C120FFF701FF01211220FFF7FDFE002109
:102A9000C520FFF7F9FE01213220FFF7F5FE0121E5
:102AA0003C20FFF7F1FE0021C720FFF7EDFE0121DA
:102AB000C120FFF7E9FE00213620FFF7E5FE0121E6
:102AC0004B480078FFF7E0FE00213A20FFF7DCFEDC
:102AD00001215520FFF7D8FE0021B120FFF7D4FED9
:102AE00001210020FFF7D0FE01211820FFF7CCFEC6
:102AF0000021B620FFF7C8FE01210A20FFF7C4FE1F
:102B00000121A220FFF7C0FE0021F220FFF7BCFE4A
:102B100001210020FFF7B8FE00212620FFF7B4FEB8
:102B200001210846FFF7B0FE0021E020FFF7ACFED0
:102B300001210F20FFF7A8FE01212020FFF7A4FEAE
:102B400001211E20FFF7A0FE01210920FFF79CFEB6
:102B500001211220FFF798FE01210B20FFF794FEC0
:102B600001215020FFF790FE0121BA20FFF78CFED3
:102B700001214420FFF788FE01210920FFF784FE90
:102B800001211420FFF780FE01210520FFF77CFEC4
:102B900001212320FFF778FE01212120FFF774FE99
:102BA00001210020FFF770FE0021E120FFF76CFEFD
:102BB00001210020FFF768FE01211920FFF764FEC4
:102BC00001211920FFF760FE01210020FFF75CFEC4
:102BD00001211220FFF758FE01210720FFF754FEC4
:102BE000012107E00008014000300140000C0140D5
:102BF000520000202D20FFF747FE01212820FFF77B
:102C000043FE01213F20FFF73FFE01210220FFF795
:102C10003BFE01210A20FFF737FE01210820FFF7C4
:102C200033FE01212520FFF72FFE01212D20FFF784
:102C30002BFE01210F20FFF727FE00211120FFF7B7
:102C400023FE7820FFF7EBFA00212920FFF71CFE76
:102C500010BD70B5044600213620FFF715FE04F0C4
:102C6000080030B1F848047001210078FFF70CFE2D
:102C700012E0F548007824EA0005F3480078A04304
:102C8000F14908701DB10846007820430870012101
:102C9000ED480078FFF7F8FD70BD30B5014601F052
:102CA0001F04C1F34513CA0AE50205EB4315154499
:102CB000A8B230BD70B504460D4600212A20FFF7AA
:102CC000E3FD20120121FFF7DFFDE0B20121FFF754
:102CD000DBFD00212B20FFF7D7FD28120121FFF794
:102CE000D3FDE8B20121FFF7CFFD70BD2DE9F04122
:102CF00004460D4616461F4600212A20FFF7C4FD54
:102D000020120121FFF7C0FDE0B20121FFF7BCFD59
:102D100030120121FFF7B8FDF0B20121FFF7B4FD39
:102D200000212B20FFF7B0FD28120121FFF7ACFD99
:102D3000E8B20121FFF7A8FD38120121FFF7A4FD39
:102D4000F8B20121FFF7A0FD00212C20FFF79CFD28
:102D5000BDE8F08170B504460D4616462B46224666
:102D600029462046FFF7C2FF3046FFF7D1FD70BD70
:102D70002DE9F84F04460D4629462046FFF79AFFF5
:102D800000212E20FFF780FD01210020FFF77CFDB0
:102D900001210020FFF778FD064601210020FFF702
:102DA00073FD074601210020FFF76EFD80464FEAC4
:102DB000D6094FEA970A4FEAD80B4FEA092040EAB2
:102DC0004A1040EAEB0000900098BDE8F88F2DE92A
:102DD000F04704460D4616461F46DDF820A03B4648
:102DE000324629462046FFF781FFA8460EE0A1465D
:102DF00006E05046FFF78CFD09F101001FFA80F94B
:102E0000B145F6DD08F101001FFA80F8B845EEDDA6
:102E1000BDE8F08770B5064640F23F13EF2200216F
:102E20000846FFF763FF00240BE0002504E030466E
:102E3000FFF76EFD681C85B2B5F5A07FF7DB601C5F
:102E400084B2F02CF1DB70BD2DE9FF5F05460F4623
:102E50001646AA467D48B0F800B0E02D02DCB7F572
:102E6000987F01DDBDE8FF9FA6F12000C6B207F103
:102E70000F0083B2E81D82B239462846FFF736FFBD
:102E8000039858BB002426E004EB0610704911F8A3
:102E900000904FF0000816E009F0010018B16B48EF
:102EA000A0F800B003E06B480088684908806748D4
:102EB0000088FFF72DFD4FEA6909681C85B208F10B
:102EC000010000F0FF08B8F1080FE5DB5546781C5B
:102ED00087B2601CC4B2102CD6DB22E000241EE0B6
:102EE00004EB06105A4911F800904FF0000811E069
:102EF00009F0010040B13A1991B205EB080290B215
:102F0000524A1288FFF726FF4FEA690908F10100CB
:102F100000F0FF08B8F1080FEADB601CC4B2102C07
:102F2000DEDB4A48A0F800B000BF9BE770B505465D
:102F30000E46144619E0E02D03DD002506F11000D1
:102F400086B2B6F5987F06DD0020054606464FF4AA
:102F50007840FFF75FFF2278002331462846FFF7CD
:102F600073FF05F1080085B2641C20780028E2D1C7
:102F700070BD10B50246012000E050430B1EA1F1C8
:102F80000104E1B2F9D110BD2DE9F04706468946AA
:102F900017461D464FF0000ABFB200242FE0281B41
:102FA000401EC1B20A20FFF7E4FFB7FBF0F00A2190
:102FB000B0FBF1F201FB1208BAF1000F11D1681E4B
:102FC000A0420EDDB8F1000F09D1082101FB046118
:102FD00088B2002320224946FFF736FF0DE04FF06C
:102FE000010A08F13001CAB2082101FB046188B26C
:102FF00000234946FFF728FF00BF601CC4B2AC4263
:10300000CDDBBDE8F0872DE9FF4F85B081468A46CC
:103010000020039083460798A0EB09050898A0EBD1
:103020000A06CDF80890CDF804A0002D01DD012797
:1030300005E00DB9002702E04FF0FF376D42002E8A
:103040000ADD4FF001080EE052000020560000207B
:10305000FAA100085400002016B94FF0000802E061
:103060004FF0FF387642B54201DD2C4600E0344691
:10307000002004901EE0019A91B2029A90B2129A36
:10308000FFF768FE039828440390B3440398A042D6
:1030900005DD0398001B0390029838440290A34575
:1030A00004DDABEB040B0198404401900498401CF4
:1030B00080B20490611C04988842DCDD09B0BDE850
:1030C000F08FF8B506460C4617461D4623463A468D
:1030D000214630460095FFF796FFF8BDF8B5044647
:1030E0000F4615461E462B46224639462046009678
:1030F000FFF789FFF8BD2DE9F84305460E46174650
:103100009846089C33463A46314628460094FFF7D5
:103110007AFF43462A46314628460094FFF773FF5C
:1031200043463A46414628460094FFF76CFF434623
:103130003A46314638460094FFF765FFBDE8F8830C
:103140002DE9F04780460C4691461D46DDF820A04B
:10315000AC4202DD2FB22546BCB2264607E05346FC
:103160004A4631464046FFF7ACFF701C86B2AE427D
:10317000F5DBBDE8F0872DE9F04706460F4690469F
:103180009A46002445460320A0EB480952E03A1B2A
:1031900091B2721B90B25246FFF7DCFD3A1B91B21E
:1031A000721990B25246FFF7D5FD7A1991B2321BCF
:1031B00090B25246FFF7CEFD3A1B91B2721B90B20D
:1031C0005246FFF7C7FD7A1B91B2321B90B25246AE
:1031D000FFF7C0FD3A1991B2721990B25246FFF74B
:1031E000B9FD7A1B91B2321990B25246FFF7B2FD87
:1031F0007A1991B2321990B25246FFF7ABFD3A19E3
:1032000091B2721B90B25246FFF7A4FD641CB9F153
:10321000000F03DAA000801D814404E0601B8000E1
:103220000A3081446D1E7A1991B2321990B2524619
:10323000FFF790FDAC42AADDBDE8F0872DE9F0472D
:103240000746884614461D46089E04FB05F92B4692
:10325000224641463846FFF749FD00212C20FFF762
:1032600013FB03E03088FFF753FBB61CB9F10000F5
:10327000A9F10109F6D1BDE8F0872DE9F84F05461F
:103280000E46904699460A9C792000907DE0207871
:10329000802860DBE02D03DD012506F1140086B2F5
:1032A000B6F5987F06DD0020054606464FF47840C7
:1032B000FFF7B0FD002746E007EB07107B4911F848
:1032C0001000217888423CD107EB0710774901EBC9
:1032D000400040786178884233D106F10F0083B214
:1032E00005F10F0082B231462846FFF7FFFC4FF090
:1032F000000A23E04FF0000B19E007EB07106B49C1
:1033000001EB4000801C10F80A00802141FA0BF10B
:10331000084018B14046FFF7FBFA04E0C84502D068
:103320004846FFF7F5FA0BF101001FFA80FBBBF1ED
:10333000080FE2DB0AF101001FFA80FABAF1200F50
:10334000D8DB781C87B200988742B5DBA41C05F156
:10335000100085B219E0E02D03DD012506F114000F
:1033600086B2B6F5987F06DD0020054606464FF486
:103370007840FFF74FFD2278002331462846FFF7BB
:1033800063FD05F1080085B2641C207800287FF4F5
:103390007EAFBDE8F88F2DE9FE4F05460E46174675
:1033A0009846DDF830B022210D98B0FBF1F0019085
:1033B000CDF800B000244BE0E02D03DD022506F13E
:1033C000140086B2B6F5987F06DD02200546064653
:1033D0004FF47840FFF71EFD06F10F0083B205F1B0
:1033E0000F0082B231462846FFF780FC4FF00009FB
:1033F00026E04FF0000A1CE0092C00DD029404EBEB
:103400000411009800EB4100801C10F80900802195
:1034100041FA0AF1084018B13846FFF779FA04E09A
:10342000474502D04046FFF773FA0AF101001FFA40
:1034300080FABAF1080FDFDB09F101001FFA80F909
:10344000B9F1200FD5DB05F1100085B2601C84B204
:1034500001988442B0DBBDE8FE8F2DE9F84F0746A6
:10346000884615461E46DDF8289005FB06F00090BC
:1034700008EB0600401E83B27819401E82B2414616
:103480003846FFF733FC00240BE019F814B009EBC1
:10349000440090F801A04BEA0A20FFF739FA601CBB
:1034A00084B200988442F0D3BDE8F88FEAA7000800
:1034B00008B501211020FDF779FB4FF40050ADF85D
:1034C000000010208DF8030003208DF802006946EB
:1034D0000A48FDF7AFF801210420FDF767FB4FF420
:1034E0008050ADF8000010208DF8030003208DF807
:1034F000020069460248FDF79DF808BD0010014032
:10350000000801402DE9FC47FE48006805F090FFE7
:1035100006460022FC4B05F083FD04460D46FB48A1
:10352000006805F085FF06460022F74B05F078FDA0
:10353000804642460B46F6A1FA48CDE9004502F026
:10354000CBFDF84802F0E6F96420FEF768FEBDE81E
:10355000FC8738B50446F44800880090F3480078AA
:10356000352250430A3883B2F04800785043283857
:1035700081B2E622C820FFF72AFC601CEB490870E4
:10358000EB4800900846007835225043283881B235
:103590001E231A46C820FFF760FF2246E5A1E14836
:1035A00002F09AFDDF4802F0B5F96420FEF737FE1D
:1035B00038BD38B50446002C76D0082C75D006DC12
:1035C000012C3DD0022C07D0042C6FD170E0142CBC
:1035D0006DD0182CF9D10DE1D848007805282EDAE5
:1035E000D748007838B1D6480078022803D0D448AC
:1035F0000078052823D1CC4800880090CF48007877
:10360000352250430A3883B2CC48007850432838DA
:1036100081B223220520FFF7DAFBC8480078401C5E
:10362000C6490870C74800900846007835225043C4
:10363000283881B21E231A460520FFF70EFFDDE071
:10364000BE48007801282EDDBD48007838B1BC485E
:103650000078022803D0BA480078052823D1B24860
:1036600000880090B5480078352250430A3883B26C
:10367000B24800785043283881B223220520FFF752
:10368000A6FBAE480078401EAC490870AD480090DB
:103690000846007835225043283881B21E231A4646
:1036A0000520FFF7DAFEA9E0A9E06AE0A5E092E0D4
:1036B000A348007890BBA1480078012803D10220DC
:1036C0009F4908705CE09D480078022806D10420DC
:1036D0009B49087001209949087051E0974800788B
:1036E000032806D1052096490870012093490870E7
:1036F00046E092480078042805D1012090490870DE
:103700008E4908703CE08D480078052838D10720A4
:103710008B49087001208949087031E0FFE788482B
:103720000078022803D103208549087028E08448E6
:103730000078052803D106208149087020E08048E0
:10374000007803280CD100217F48804A12788154E8
:103750000146002001F074F800207C4908700FE059
:103760007748007806280BD100217748774A1278ED
:1037700081540146002001F063F80020734908706D
:103780003CE06F48007802280FD06D48007801288F
:103790000BD06B480078052807D0694800780428CA
:1037A00003D067480078072805D1002064490870D5
:1037B000674908700EE062480078032803D10220B0
:1037C0005F49087006E05E480078062802D10520AF
:1037D0005B49087012E05A480078022803D0584824
:1037E0000078052805D155490978491EC8B2FFF768
:1037F000B0FE03E0FFF786FE00E000BF00BF38BD6B
:103800002DE9F04F89B04FF6FE7B52A0009046485C
:1038100003885548028828213C20FFF72EFD00240C
:103820003AE03848006805F003FE07460022364BB0
:1038300005F0F6FBCDE906013448006805F0F8FD17
:1038400007460022304B05F0EBFBCDE90401474869
:1038500000EB0410C1688068CDE90201434800EB29
:10386000041003C8CDE9000104A80FC802F095F8C0
:1038700005460E46584605F0DBFD07462A46334608
:1038800005F024FF06D22846314605F08DFD1FFACB
:1038900080FBA146601CC4B2052CC2DBBBF57A7F5D
:1038A0000EDD33A00090204803882F480288502165
:1038B0004120FFF7E2FC32A1002000F0C1FF8EE0C2
:1038C0001048006805F0B4FD074600220E4B05F0D5
:1038D000A7FBCDE906010D48006805F0A9FD0746E4
:1038E0000022094B05F09CFBCDE904011F4800EBC9
:1038F0000910C1688068CDE902011C4800EB09107D
:1039000003C84DE030000020006AF8402C00002081
:103910002A316C61743A25662C6C6E673A256623F1
:1039200000000000E400002054000020B600002049
:1039300008BF00082A32256423000000B5000020DB
:10394000B300002000B8000864010020B00000208F
:10395000B2000020D5FDD4DAD3CEC0C0C6DFD0C7B8
:10396000B9ABD4B0000000005600002010C600081B
:10397000BEE0C0EBBEB0B5E3CCABD4B600000000F7
:10398000B5B1C7B0CBF9D4DACEBBD6C3BEE0C0EB7D
:10399000BEB0B5E3B3ACB9FD31C7A7C3D7000000D3
:1039A000CDE9000104A80FC802F0C1F98246F94828
:1039B00050F82A30F84850F82920F8A1FE4802F0C3
:1039C0008BFBFD480090FD480388FD48028850218C
:1039D0000A20FFF752FCF849002000F031FFF948B7
:1039E0000078012803D0F748007802280AD1F6A011
:1039F0000090F2480388F248028878213C20FFF7C3
:103A00003CFC09E0F4A00090EC480388EC480288F4
:103A100078213C20FFF731FCF348008805F008FDD1
:103A200007460022F14B05F0FBFA02460B46CDE9B2
:103A30000601EFA1E04802F04FFBDF480090DF48AD
:103A40000388DF4802888C213C20FFF716FCED48F4
:103A500000780090EC480378EC4802780832ECA13A
:103A6000D54802F039FBD4480090D4480388D448A4
:103A70000288A0213C20FFF700FC09B0BDE8F08FD0
:103A800070B5064600240025304602F09DFCC5B204
:103A90007E2D00DD70BD11E0E44800787E2800DD59
:103AA0000EE02046611CCCB2C349095CDF480278B5
:103AB0000078401CDD4B1870DD488154AC42EBDBD4
:103AC00000BF00BFE6E72DE9F04F87B004460020B5
:103AD000D6490870D748006805F0AAFC07460022BE
:103AE000D54B05F09DFA05460E46D448006805F012
:103AF0009FFC07460022D04B05F092FA81468A4689
:103B0000CF4800EB0410C1688068CDE90201CC48C1
:103B100000EB041003C82A463346CDE900014846AD
:103B2000514602F004F98346C248006805F080FC63
:103B300007460022C04B05F073FA05460E46BF4803
:103B4000006805F075FC07460022BB4B05F068FADB
:103B500081468A46BA4800EB0410C1688068CDE906
:103B60000201B74800EB041003C82A463346CDE9EA
:103B700000014846514601F010FFCDE90401DDE99E
:103B80000401CDE90001834850F82B30824850F8F9
:103B90002420ACA1884802F09FFA8748009087480B
:103BA000038887480288D4211420FFF766FB8248E7
:103BB000FFF766FF07B0BDE8F08F38B500241BE0C3
:103BC000754850F824003522009004FB02F000F103
:103BD00011017A4803887A4802882820FFF74DFBB4
:103BE000601C352200FB02F175480388EE2201209B
:103BF000FFF767FA601CC4B2052CE1DB9A4800901D
:103C00009A48007835225043283881B21E231A463C
:103C10000520FFF722FC9648009096480078352250
:103C20005043283881B21E231A46C820FFF715FCDE
:103C300038BD10B5FFF7C1FF10BD1CB58EA00090B8
:103C40005E4803885E48028811215020FFF715FB6B
:103C50008B48007878B18B480068401F80B28A4951
:103C6000CDE90010554803885548028846211420A4
:103C7000FFF791FB09E085A0009050480388504869
:103C8000028846215020FFF7F8FA1CBDF8B504461B
:103C9000002066490870404951F8240002F094FB66
:103CA000F021A1EBC000C0F34F053B4850F82400C1
:103CB00000904248038842480288B0212846FFF716
:103CC000DCFA354951F82400FFF7DAFE5C4800EBD6
:103CD0000410D0E902532A466FA1374802F0FCF9DC
:103CE000354800903548038835480288D4211E2085
:103CF000FFF7C3FA3048FFF7C3FE514800EB04104A
:103D0000D0E900532A4668A12B4802F0E5F92A4879
:103D100000902A4803882A480288E8211E20FFF7DD
:103D2000ACFA2548FFF7ACFEF8BDF8B52548007899
:103D300030B1012809D002280CD0062814D10EE099
:103D40005DA11D4802F0C8F90EE05FA11A4802F01B
:103D5000C3F909E061A1184802F0BEF904E064A1CA
:103D6000154802F0B9F900BF00BF1348009013488E
:103D700003881348028821211E20FFF77EFA2D4870
:103D8000006805F055FB064600222B4B05F048F96C
:103D90000446B7E0900000207C000020C7B0B7BD0B
:103DA000BEB0B5E3CEAA3A25732CCEBBD3DA2573C9
:103DB000B7BDCFF220000000E40000205400002036
:103DC0005600002037000020B6A8CEBBD7B4CCAC3C
:103DD0003AB3C9B9A6000000B6A8CEBBD7B4CCACE4
:103DE0003ACAA7B0DC0000004400002000408F4029
:103DF000D2C6B6AFCBD9B6C83A252E33666B6D2F77
:103E000068000000500000204F0000204E000020FD
:103E1000B5B1C7B0CAB1BCE43A253032643A2530F6
:103E200032643A253032642000000000B0000020E7
:103E30006401002030000020006AF8402C000020BF
:103E400010C600082573D4DAB5B1C7B0CEBBD6C34F
:103E5000B5C42573B7BDCFF22CBEE0C0EBB4F3D42C
:103E6000BC252E32666D000000B80008B5000020A9
:103E700008BF0008B6000020CFFBCFA20000000062
:103E8000D0000020D4000020610700204E6F2044A5
:103E90006174612100000000CEBBD6C3BEADB6C8C0
:103EA0003A20256600000000CEBBD6C3CEB3B6C80C
:103EB0003A20256600000000B6A8CEBBD7B4CCAC33
:103EC0003ACEB4B6A8CEBB00B6A8CEBBD7B4CCAC65
:103ED0003AB7C7B2EEB7D6B6A8CEBB00B6A8CEBB2F
:103EE000D7B4CCAC3AB2EEB7D6B6A8CEBB00000081
:103EF000B6A8CEBBD7B4CCAC3AD5FDD4DAB9C0CBDA
:103F0000E3000000F548007822460B46F4A100903B
:103F1000F74802F0E1F8F6480090F6480388F648C2
:103F2000028835211E20FFF7A8F9F448006805F043
:103F30007FFA06460022F24B05F072F80446F1487B
:103F4000007822460B46F0A10090E94802F0C4F840
:103F5000E7480090E7480388E748028849211E2087
:103F6000FFF78BF9EC48006805F04BFA0646002293
:103F7000EA4B05F055F8044622460B46E8A1DC481A
:103F800002F0AAF8DA480090DA480388DA48028892
:103F90005D211E20FFF771F9E548008805F048FA19
:103FA00006460022E34B05F03BF8044622460B464A
:103FB000E1A1CF4802F090F8CD480090CD480388A9
:103FC000CD48028871211E20FFF757F9DE4800789E
:103FD000032812DCDD48DC49097850F82120DCA1F7
:103FE000C34802F079F8C2480090C2480388C2482A
:103FF000028885211E20FFF740F9D8480278D8A111
:10400000BB4802F069F8BA480090BA480388BA4839
:10401000028899211E20FFF730F9D54800786421E5
:1040200090FBF1F201FB12042246D2A1B04802F04B
:1040300053F8AF480090AF480388AF480288AD21DD
:104040001E20FFF71AF9CF4800780090CE48037879
:10405000CE480288CEA1A64802F03EF8A4480090BF
:10406000A4480388A4480288C1211E20FFF705F94F
:10407000CD4800780090CD480378CD480278CDA196
:104080009B4802F029F89A4800909A4803889A4879
:104090000288D5211E20FFF7F0F8F8BD38B50024BE
:1040A0001BE0CA4850F824003522009004FB02F0BF
:1040B00000F111018F4803888F4802882820FFF7FC
:1040C000DCF8601C352200FB02F18B480388EE22ED
:1040D0000120FEF7F6FF601CC4B2052CE1DBBC48F2
:1040E0000090BC48007835225043283881B21E2306
:1040F0001A460520FFF7B1F938BD38B504460D461C
:1041000040F23F134FF48F7201210846FEF7EEFD97
:10411000784800884FF48F73EE2201210090084602
:10412000FEF755FE032C01D0062C0BD1AAA000905F
:1041300070480388704802884FF496712C20FFF76E
:104140009CF80AE0A6A000906A4803886A480288A2
:104150004FF496712C20FFF790F8A3A000906548CB
:104160000388654802884FF49671A020FFF785F810
:1041700061480388EF224FF48F710120FEF7A1FF01
:104180005D48038840F23F124FF48F717820FEF7AC
:10419000A5FF082C24D2DFE804F004070A0D12154D
:1041A000181DFFF77BFF1BE0FFF7BFFD18E0FFF7CF
:1041B00004FD15E0691EC8B2FFF768FD10E0FFF7C7
:1041C0003CFD0DE0FFF735FD0AE0691EC8B2FFF7C0
:1041D0007AFC05E0FFF714FB01208549087000BF59
:1041E00000BF38BDF8B50025002782A1002000F0EF
:1041F00027FB0120FEF737F882A1002000F020FB0A
:104200008AA000903B4803883B4802885021182030
:10421000FFF733F88CA000903648038836480288B0
:1042200064212820FFF729F830E0642D00DD2EE01E
:104230008A48008800F4004040B388480088C0F3F2
:104240000E06002405E08648005D86490855601C7E
:1042500084B2B442F7DB0020824908550846FEF7D5
:1042600061FA00207D490880681CC5B27E4800784C
:10427000012803D07C480078022807D17B480168D8
:104280001E48006801F0B2FE074600E0CDE700BF1F
:10429000002409E02046611C8CB20A2800DD07E0FA
:1042A0004FF49670FDF7BBFF714800680128F1D00C
:1042B00000BF0A2D0DDD6FA1002000F0C1FA74A02F
:1042C00000900C4803881F2278215A20FEF7D5FF62
:1042D00001E1012F00D1E1E0EFE000003600002015
:1042E000BEADB6C83A252E356620253163200000C4
:1042F000E400002054000020560000202C00002084
:10430000006AF84035000020CEB3B6C83A252E35F5
:10431000662025316320000040000020000024407A
:10432000B8DFB6C83A252E31666D20202000000087
:104330004400002000408F40CBD9B6C83A252E3328
:10434000666B6D2F682000003900002058000020A7
:10435000B6A8CEBBC4A3CABD3A257300380000205E
:10436000B6A8CEBBCEC0D0C7CAFD3A253032640055
:1043700034000020BFC9BCFBCEC0D0C7CAFD3A255F
:10438000303264004D0000204C0000204800002026
:10439000555443C8D5C6DA3A253034642F25303217
:1043A000642F253032642000500000204F00002090
:1043B0004E000020555443CAB1BCE43A2530326463
:1043C0003A253032643A25303264200068000020FB
:1043D00000B80008B5000020D3EFD2F400000000C0
:1043E000C8B7B6A800000000B7B5BBD800000000F1
:1043F000B20000205B7631305D5B6D31305D5B7407
:10440000355D0000BBB6D3ADCAB9D3C3D6C7C4DCD3
:10441000BEB0C7F8B5BCD3CECFB5CDB3A3ACD5FD38
:10442000D4DAB6A8CEBBD6D000000000BBB6D3AD60
:10443000CAB9D3C3D6C7C4DCBEB0C7F8B5BCD3CEE7
:10444000CFB5CDB300000000D5FDD4DAC8B7B6A80B
:10445000C4FAB5C4CEBBD6C32E2E2E00D800002081
:1044600004050020E4010020370000203000002077
:1044700020012142B6A8CEBBCAA7B0DCA3ACC7EBD3
:10448000D4DACAD2CDE2B6A8CEBBA3A10000000008
:10449000B6A8CEBBCAA7B0DC000000009CA10020DB
:1044A00000F0CEF9A6A00090AD480388AD48028880
:1044B00078210A20FEF7E1FE0DE0ABA1002000F01C
:1044C000BFF9B1A00090A6480388A64802887821C9
:1044D0004020FEF7D2FE0220FDF7C5FEF8BD08B56C
:1044E0001F20A04908804FF6FF709D490880FDF706
:1044F00059FE4FF4165001F030F84FF4165001F009
:1045000078F84FF4165001F0C5F8FEF7D1FF00F02F
:1045100083F9FEF737FA01F0CDFC91480088FEF7E9
:1045200079FC4FF4A073F02200210846FEF7DEFB71
:1045300040F2CF1040F23F13EF22002100900846D6
:10454000FEF7D9FDFFF74EFE01210020FFF7D5FD54
:1045500052E09148008800F40040002837D08F488E
:104560000078012807D08D480078062803D08B48B2
:104570000078072813D188480088C0F30E0500246E
:1045800005E08748005D87490855601C84B2AC424D
:10459000F7DB0020834908550846FEF7C3F80020E2
:1045A0007D4908807D480078012801D1FFF7BDFBD7
:1045B0007A48007807280AD17B48007838B1002073
:1045C00079490870012079490870FFF719F9734893
:1045D000007877490978884209D0764801786F4891
:1045E0000078FFF78AFD6D4800787149087001F086
:1045F00075FC0646FEF7DDFFABE710B500F02DFFBA
:104600006D484088352801DA012010BD6A4840888D
:104610006A2801DA0220F8E7674840889F2801DA13
:104620000320F2E764484088D42801DA0420ECE74C
:1046300061484088B0F5847F01DC0520E5E75E48ED
:104640000088782801DA0620DFE70720DDE710B5CB
:1046500000F002FA78B94FF6FF70FEF7DBFB4FF679
:10466000FF703F4908804FF478403E49088000F0D1
:10467000B5FE012010BD0020FCE710B501F02EFCB6
:104680000446112C28D008DC012C0DD0022C11D0AE
:10469000042C15D0082C37D118E0122C22D0142C61
:1046A00026D0182C30D129E044A2C8213220FEF7B0
:1046B0003DFC2AE043A2C8213220FEF737FC24E06B
:1046C00042A2C8213220FEF731FC1EE041A2C821DF
:1046D0003220FEF72BFC18E040A2C8213220FEF762
:1046E00025FC12E03FA2C8213220FEF71FFC0CE09F
:1046F0003EA2C8213220FEF719FC06E03DA2C821E7
:104700003220FEF713FC00E000BF00BF10BD000028
:10471000B6A8CEBBB3C9B9A6A3A1BBB6D3ADC0B42E
:10472000B5BDB9F0C1D6C6DFD0C7B9ABD4B0A3AC64
:10473000D7A3C4FAD3CECDE6D3E4BFEC000000008B
:10474000BBB6D3ADC0B4B5BDC6DFD0C7B9ABD4B06E
:10475000A3ACD7A3C4FAD3CECDE6D3E4BFEC00001C
:104760005400002056000020B6A8CEBBB3C9B9A69D
:10477000A3A1C4FAB5B1C7B0B2BBD4DABEB0C7F812
:10478000C4DAA3A100000000C4FAB2BBD4DABEB000
:10479000C7F8C4DAA3A10000D8000020B3000020AD
:1047A00004050020E4010020B1000020B200002038
:1047B000B4000020B5000020C20000207570202049
:1047C00020200000646F776E202020006C656674E6
:1047D00020202000726967687420200075705F6C6B
:1047E00020200000646F776E5F3100006C65667496
:1047F0005F31000072696768745F3100704700BF05
:10480000FEE700BFFEE700BFFEE700BFFEE7704720
:10481000704770477047000008B501210420FCF77D
:10482000C5F94FF48070ADF8000004208DF8030046
:1048300003208DF8020069462748FBF7FBFE08BD00
:104840002DE9F0418EB080460E4600270024304608
:1048500001F0BAFDC5B2FD208DF8040000208DF8EE
:104860000500E81CC0B28DF8060001208DF8070095
:1048700040EA0810C0B28DF8080000BF04E001A8AB
:10488000005D4740601C84B2052CF8DB002403E087
:10489000305D4740601C84B2AC42F9DB2A463146A9
:1048A0000DF1090001F0AFFD681D01A90F54A81D0D
:1048B000C2B20A4800F06BFF0EB0BDE8F08170B5DF
:1048C0000446204601F080FDC5B22A462146034831
:1048D00000F05DFF70BD000000080140003801409D
:1048E0007FB505460C4601210220FCF76CF9ADF8B6
:1048F0000850ADF804400020ADF80A00ADF80600FD
:1049000001A92D48FCF710FC012211462A48FCF7AA
:1049100082FF1D208DF8000000208DF8010003208B
:104920008DF8020001208DF803006846FBF7B9FD01
:1049300001212148FCF754FF7FBD10B501211E481D
:10494000FDF717FA002835D001211B48FDF722FAA0
:104950001A48007830B90020194908600120174929
:10496000087005E00120164908600020134908700E
:104970001448007888B114480078401C1249087027
:104980000846007814280BDD01201049087000202B
:104990000C4908700C49087002E000200A490870B0
:1049A0000B48008840F40040094908800021024873
:1049B000FCF716FF10BD000000040040B700002007
:1049C000B0012142B2000020B8000020B100002058
:1049D000D800002010B50120F84908602021F848CF
:1049E000FBF7D5FE8021F648FBF7D1FE2021F448E5
:1049F000FBF7CDFE10BD08B501211420FCF7D6F859
:104A00004FF48040ADF8000003208DF80200102024
:104A10008DF803006946EB48FBF70CFE4020ADF82B
:104A2000000003208DF8020048208DF8030069463D
:104A3000E348FBF7FFFD4FF40040ADF80000032012
:104A40008DF8020048208DF803006946DD48FBF729
:104A5000F1FDFFF7BFFF08BDD8487C380068C0B241
:104A6000704770B5044600252021D548FBF791FE1C
:104A700000BF17E02021D248FBF78BFE04F0800036
:104A800020B18021CE48FBF782FE03E08021CC4894
:104A9000FBF77FFE2021CA48FBF779FE6006040E73
:104AA000681CC5B2082DE5DB70BD70B5002500247B
:104AB00000BF12E04FF6FF7000EA44042021C04816
:104AC000FBF765FE2021BE48FBF763FEBE48006889
:104AD00008B144F00104681CC5B20C2DEADB204685
:104AE00070BD70B504460020B44908602046FFF749
:104AF000B8FF2021B248FBF74AFE2021B048FBF75F
:104B000048FEFFF7D2FF05460120B049C1F8B801C1
:104B1000284670BD2DE9F04188B08046002700246A
:104B200006E04046FFF7DDFF2DF81400601C84B25C
:104B30000F2CF6DB002416E0601C85B20FE03DF878
:104B400014003DF81510884207DD3DF814603DF86B
:104B500015002DF814002DF81560681C85B20F2D76
:104B6000EDDB601C84B20E2CE6DB0027052405E09B
:104B70003DF81400384487B2601C84B20A2CF7DB7D
:104B8000052097FBF0F086B2304608B0BDE8F08112
:104B90002DE9F04104460D46D020FFF7BBFF064645
:104BA0009020FFF7B7FF0746642E01DB642F02DA7F
:104BB0000020BDE8F08126802F800120F9E77FB535
:104BC00004460D4602A903A8FFF7E2FF064616B900
:104BD000002004B070BD694601A8FFF7D9FF064662
:104BE0000EB90020F5E7BDF80400BDF80C108842AE
:104BF00006DCBDF80C10BDF80400143081420CDB5B
:104C0000BDF80C00BDF80410884230DCBDF804107B
:104C1000BDF80C001430814229DABDF80000BDF85F
:104C20000810884206DCBDF80810BDF800001430FA
:104C300081420CDBBDF80800BDF80010884216DC8C
:104C4000BDF80010BDF80800143081420FDABDF83D
:104C50000C00BDF80410084440102080BDF8080086
:104C6000BDF800100844401028800120B1E7002062
:104C7000AFE71CB500241FE000BF5549881EFFF7B1
:104C80009EFF0028F9D00A20FDF7C9FA00BF694647
:104C900001A8FFF794FF0028F9D04D48801E008836
:104CA000BDF80410884207D14948801E4088BDF8ED
:104CB0000010884200D10124002CDDD020461CBD0C
:104CC00038B504460D464348008804F10D018AB208
:104CD0001939009088B22B462946FEF794F93D48D1
:104CE0000088009005F10D0083B2193881B2224688
:104CF0002046FEF788F96A1C91B2621C90B2354AD0
:104D00001288FEF727F86A1C91B2621E90B2314AEF
:104D10001288FEF71FF86A1E91B2621C90B22D4AEB
:104D20001288FEF717F86A1E91B2621E90B2294AE5
:104D30001288FEF70FF838BD10B500242449881EEC
:104D4000FFF73DFF00285FD001242148801E008826
:104D50002149098888420DDD1D48801E00881E49B2
:104D60000988401A4FF47A7148431C490988B0FBFE
:104D7000F1F00CE01648801E008817490988081ACF
:104D80004FF47A71484315490988B0FBF1F0144992
:104D900008800F48801E408812490988884225DD16
:104DA0000B48801E40880F490988401A4FF47A71D9
:104DB00048430D490988B0FBF1F023E0B8012242D5
:104DC0000008014000100140180121420000224269
:104DD000C400002056000020BE000020BA000020C1
:104DE000C6000020C0000020BC000020FE48408813
:104DF000FE490988081A4FF47A714843FC4909882A
:104E0000B0FBF1F0FB494880204610BD2DE9F04F82
:104E10008FB0002600BF1F20F74908804FF6FF70B3
:104E2000F6490880FDF7F6FF4FF47840F249088014
:104E30004FF6FF70FDF7EEFF32210846FFF740FF07
:104E4000CBE2EF48006800287ED1FFF712FF58B18F
:104E5000E548008804A941F83600E348408801EBA2
:104E6000C6014860701CC6B2012E06D0022E12D0B8
:104E7000032E1FD0042E0DD12BE04FF6FF70FDF74F
:104E8000C9FF00BFDE4800680028FBD03221BD20EA
:104E9000FFF716FF9FE24FF6FF70FDF7BBFF00BF65
:104EA000D74800680028FBD040F20D113220FFF7F0
:104EB00007FF90E24FF6FF70FDF7ACFF00BFD04850
:104EC00000680028FBD040F20D11BD20FFF7F8FE6E
:104ED00081E24FF6FF70FDF79DFF00BFC8480068F4
:104EE0000028FBD00499069888420AD906990498AC
:104EF000081A401C4FF47A7148438C21B0FBF1F042
:104F000009E006990498401A401E4FF47A7148430C
:104F10008C21B0FBF1F0039004F03AFF07460499AE
:104F20000698884211D9B749384604F079FFB64946
:104F3000009004F04BFE0290049804F029FF0190C9
:104F4000029905F06BF810E046E2AE49384604F0ED
:104F500067FFAD49009004F039FE0290049804F018
:104F600017FF0190029904F0C3FD039004F0F0FED6
:104F70001FFA80FB0599099888420AD90599099872
:104F8000401A401E4FF47A714843DC21B0FBF1F027
:104F900009E005990998081A401E4FF47A714843B0
:104FA000DC21B0FBF1F0039004F0F2FE814605999C
:104FB0000998884210D99349484604F031FF924934
:104FC000009004F003FE0290059804F0E1FE0190C9
:104FD000029905F023F80FE08A49484604F020FFC3
:104FE0008949009004F0F2FD0290059804F0D0FE8B
:104FF0000190029904F07CFD039004F0A9FE80B2B8
:105000000D9008990A9888420AD908990A98401A76
:10501000401C4FF47A7148438C21B0FBF1F009E059
:1050200008990A98081A401E4FF47A7148438C2157
:10503000B0FBF1F0039004F0ABFE804608990A98AB
:10504000884210D96F49404604F0EAFE6E4900904C
:1050500004F0BCFD0290089804F09AFE01900299B9
:1050600004F0DCFF0FE06749404604F0D9FE6649D2
:10507000009004F0ABFD0290089804F089FE0190C6
:10508000029904F035FD039004F062FE80B20E90A8
:105090000B99079881420AD90B990798081A401E64
:1050A0004FF47A714843DC21B0FBF1F009E0079935
:1050B0000B98081A401E4FF47A714843DC21B0FB6C
:1050C000F1F0039004F064FE82460B990798814248
:1050D00010D94C49504604F0A3FE4B49009004F00F
:1050E00075FD0290079804F053FE0190029904F0B8
:1050F00095FF0FE04349504604F092FE424900906C
:1051000004F064FD0290079804F042FE01900299B9
:1051100004F0EEFC039004F01BFE80B20C904146BC
:10512000384604F049FF08D23749404604F0E0FC15
:105130003946039004F040FE29D34146384604F036
:105140003BFE08D23049404604F068FF39460390E0
:1051500004F032FF1BD35146484604F02DFF08D21D
:105160002949504604F0C4FC4946039004F024FE4B
:105170000DD35146484604F01FFE12D22249504634
:1051800004F04CFF4946039004F016FF09D20026B4
:105190004FF6FF70FDF73EFE32210846FFF790FD07
:1051A0001BE14146384604F0A3FC4FF080410290D9
:1051B00004F00CFD039004F0CBFD14490880514627
:1051C000484604F095FC4FF08041029004F0FEFC4C
:1051D000039004F0BDFD064908800E990BEB010019
:1051E00000EBD07114E00000C2000020C0000020DD
:1051F000BC000020C6000020560000205400002003
:105200003C0122420000484200007A44BA000020DB
:10521000C1F34F019C4A1180DDE90C21881800EB95
:10522000D071C1F34F01994A11804FF6FF70FDF71D
:10523000F1FD0020964908801F209649088000242F
:10524000322595A229462046FDF770FE28343846BF
:1052500004F07EFD05230246294603902046FDF713
:1052600093FE002414358EA229462046FDF75EFEEB
:105270002834484604F06CFD052302462946039075
:105280002046FDF781FE0024143587A229462046DA
:10529000FDF74CFE283405235A4629462046FDF7E3
:1052A00073FE0024143582A229462046FDF73EFEF7
:1052B00028340523294620460D9AFDF765FE64240F
:1052C00032257DA229462046FDF730FE283440468F
:1052D00004F03EFD05230246294603902046FDF7D3
:1052E00053FE6424143576A229462046FDF71EFE9F
:1052F0002834504604F02CFD05230246294603902D
:105300002046FDF741FE642414356FA2294620464D
:10531000FDF70CFE28340523294620460E9AFDF79A
:1053200033FE642414356AA229462046FDF7FEFDAB
:1053300028340523294620460C9AFDF725FE322401
:10534000962565A229462046FDF7F0FD2834052361
:105350006248028829462046FDF716FE322414359D
:105360005FA229462046FDF7E1FD283405235D486C
:10537000028829462046FDF707FE322414355AA23A
:1053800029462046FDF7D2FD283405233E480288F1
:1053900029462046FDF7F8FD3224143554A229464B
:1053A0002046FDF7C3FD28340523384802882946E6
:1053B0002046FDF7E9FD1E241E354FA22946204652
:1053C000FDF7B4FDFFF755FC4FF6FF70FDF722FD2A
:1053D0000FB0BDE8F08F00BF00BF32E570B500210F
:1053E0000C460D4638E04E48006820BB0024254698
:1053F000FFF7A2FC78B34BA2FA210A20FDF796FD35
:10540000494802880423FA211E20FDF7BDFD47A26A
:10541000FA21B420FDF78AFD434842880423FA218B
:10542000C820FDF7B1FD424A51881088184A1288F9
:10543000FDF790FC10E000223E4B2046294603F089
:1054400033FD04460D4600223B4B2046294604F01E
:105450003DF901D270BDFFE7C5E710B500240BE0B0
:105460000024FFF769FC00B10AE0601C84B24EF62C
:105470006020844200DD10BDFFF7EEFA0028EFD077
:1054800000BF00BFF7E70000BE000020C000002002
:1054900056000020540000205658313A0000000009
:1054A0005679313A00000000434858313A00000074
:1054B000434859313A0000005658323A0000000083
:1054C0005679323A00000000434858323A00000052
:1054D000434859323A00000056583A00BA000020BA
:1054E00056793A00BC0000204348583A00000000BA
:1054F0004348593A0000000041646A757374204FB4
:105500004B212020546F75636820416E7977686560
:10551000726520546F20436F6E74696E756500006C
:105520003C012242583A0000C2000020593A0000D3
:10553000C60000200000F03F00BDEF40014600BF64
:10554000704700BFFD4A128802F04002002AF9D0DD
:10555000C2B2FA4B1B1D1A80704710B586B00446C4
:10556000012144F20400FBF721FB4FF40070ADF879
:10557000140003208DF8160018208DF8170005A9D7
:10558000EF48FBF757F84FF48060ADF814000420A3
:105590008DF8170005A9EA48FBF74CF825208DF88F
:1055A000000003208DF801008DF8020001208DF825
:1055B00003006846FAF775FF01940020ADF8080073
:1055C000ADF80A00ADF80C00ADF810000820ADF8F9
:1055D0000E0001A9DB48FCF724FC012240F2255112
:1055E000D848FCF7B6FC0121D648FCF7A6FC06B06B
:1055F00010BD10B586B0044601210420FBF7D6FA91
:1056000001214804FBF7DFFACC48FCF7C7FB182060
:105610008DF817000420ADF8140003208DF8160053
:1056200005A9C748FBF706F804208DF817000820E5
:10563000ADF8140005A9C248FAF7FCFF0194002058
:10564000ADF810000C20ADF80E000020ADF80C00F5
:10565000ADF80A00ADF8080001A9B848FCF7E1FB75
:105660000121B648FCF769FC012240F22551B348FC
:10567000FCF76FFC26208DF8000001208DF8030058
:1056800000208DF801008DF802006846FAF709FF46
:1056900006B010BD10B586B0044601210820FBF706
:1056A00085FA01218804FBF78EFA4FF48060ADF88B
:1056B000140003208DF8160018208DF8170005A996
:1056C000A148FAF7B7FF4FF40060ADF814000420CA
:1056D0008DF8170005A99C48FAF7ACFF019400204B
:1056E000ADF810000C20ADF80E000020ADF80C0055
:1056F000ADF80A00ADF8080001A99448FCF791FB49
:1057000001219248FCF719FC012240F225518F48F3
:10571000FCF71FFC27208DF8000001208DF8030006
:105720008DF801008DF802006846FAF7BAFE41F6DE
:105730001F416320FFF7D4F800208549088000212D
:105740008448FCF74DF806B010BD0FB430B5CBB0AF
:10575000054601AC50A8009001A8009A4F9900F0AE
:10576000A9FC002000900BE014F8011B2846FCF770
:1057700051FC00BF40212846FCF7BAFC0028F9D0B4
:1057800020780028F0D14BB030BC5DF814FB2DE937
:10579000F04107460C46154600260DE014F8011BA3
:1057A0003846FCF737FC00BF40213846FCF7A0FC28
:1057B0000028F9D0701C86B2AE42EFDBBDE8F08164
:1057C00010B540F225515D48FCF7A8FC002870D0C8
:1057D00020215A48FCF799FC5848FCF71FFCC1B23D
:1057E0005D480468601C5C4A10605C4801550078A4
:1057F0005A2802D000201146086057480068022845
:1058000006D1564840785A2802D0002052490860F4
:105810005148006804284CD94F480068052810D129
:105820004E4800794D49C97840EA01204C4908604A
:1058300008460068B0F5805F03D90020464908603B
:1058400010BD4548006846490968884200D0F7E71E
:105850004248807815281AD0352822D0452821D1F1
:105860003E48407900280EDB3C48407905280ADA9A
:1058700005203C49087006203B49087037484079AC
:10588000401C3A4908700020394908700AE000209D
:1058900034490870012036490870042032490870E4
:1058A00000E000BF00BF00202B4908602B49487072
:1058B000087000BFC4E710B540F225512348FCF73B
:1058C0002DFCF8B12148FCF7A9FBC4B220480088A0
:1058D00000F40040B0B91E480088B0F5167F12DA17
:1058E00000211C48FCF710FA1948008818B901215A
:1058F0001848FBF775FF16490888411C144A1180A7
:105900001C490C5405E01248008840F4004010493E
:10591000088010BD10B504460BE014F8011B0748C1
:10592000FCF778FB00BF40210448FCF7E1FB0028AE
:10593000F9D020780028F0D110BD000000440040CC
:105940000008014000380140000C014000480040C0
:10595000D800002000040040DC0000205C0700208C
:10596000D4000020B4000020B3000020B5000020C7
:10597000D0000020040500202DE9F04104460D462A
:10598000FD4AFE4B2046294603F0A2FD06460022B2
:10599000FB4B03F045FBBDE8F0812DE9F04F99B0DA
:1059A00006460F4692469B4630463946FFF7E4FFCF
:1059B00080468946DDE92201FFF7DEFFCDE91201CD
:1059C00040464946DDE9122303F0A8FFCDE9160160
:1059D000DDE92401FFF7D0FFCDE91001504659461B
:1059E000FFF7CAFFCDE90E01DDE9102303F096FFB2
:1059F000CDE9140100224FF08043DDE9140103F0EA
:105A00000FFBCDE9000103F0ADF900224FF0804318
:105A1000CDE9020102F0BAFCCDE90601DDE912018F
:105A200002F066FCCDE902014046494602F060FC06
:105A3000CDE90001DDE9022303F04AFDCDE90401CF
:105A4000DDE9062303F044FD00224FF08043CDE959
:105A50000A01DDE9160103F0E3FACDE9040103F0E0
:105A600081F900224FF08043CDE9060102F08EFC5F
:105A7000CDE90801DDE90A2303F016FACDE90C01AE
:105A800003F0C0F9CDE90E0102F0EAF900224FF06F
:105A90008043CDE9100103F01BFD04460D46B94AD1
:105AA000B94B2046294603F013FD04460D4600225B
:105AB000B64B2046294603F00BFD04460D46204612
:105AC000294619B0BDE8F08F2DE9FF5F92B00022A2
:105AD000AB4BDDE9120103F0A3FAA74AA74BCDE9CE
